:100000000EC015C014C013C012C011C010C00FC064
:100010000EC00DC00CC00BC00AC009C008C011241E
:100020001FBECFE5D2E0DEBFCDBF02D02CC0E8CFEF
:1000300088E087BB88BB2FE33DE093E02150304050
:100040009040E1F700C0000018BA2FE73AE196E0CF
:10005000215030409040E1F700C0000088BB2FEBFA
:1000600037E299E0215030409040E1F700C00000B5
:1000700018BA2FE33DE093E0215030409040E1F783
:0A00800000C00000D7CFF894FFCFB6
:00000001FF
